{
  "_format": "hh-sol-artifact-1",
  "contractName": "PredictionMarketAMM",
  "sourceName": "contracts/PredictionMarketAMM.sol",
  "abi": [
    {
      "inputs": [
        {
          "internalType": "address",
          "name": "_usdc",
          "type": "address"
        }
      ],
      "stateMutability": "nonpayable",
      "type": "constructor"
    },
    {
      "inputs": [
        {
          "internalType": "address",
          "name": "owner",
          "type": "address"
        }
      ],
      "name": "OwnableInvalidOwner",
      "type": "error"
    },
    {
      "inputs": [
        {
          "internalType": "address",
          "name": "account",
          "type": "address"
        }
      ],
      "name": "OwnableUnauthorizedAccount",
      "type": "error"
    },
    {
      "inputs": [],
      "name": "ReentrancyGuardReentrantCall",
      "type": "error"
    },
    {
      "anonymous": false,
      "inputs": [
        {
          "indexed": true,
          "internalType": "uint256",
          "name": "marketId",
          "type": "uint256"
        },
        {
          "indexed": false,
          "internalType": "string",
          "name": "question",
          "type": "string"
        },
        {
          "indexed": false,
          "internalType": "uint256",
          "name": "endTime",
          "type": "uint256"
        }
      ],
      "name": "MarketCreated",
      "type": "event"
    },
    {
      "anonymous": false,
      "inputs": [
        {
          "indexed": true,
          "internalType": "uint256",
          "name": "marketId",
          "type": "uint256"
        },
        {
          "indexed": false,
          "internalType": "bool",
          "name": "outcome",
          "type": "bool"
        }
      ],
      "name": "MarketResolved",
      "type": "event"
    },
    {
      "anonymous": false,
      "inputs": [
        {
          "indexed": true,
          "internalType": "address",
          "name": "previousOwner",
          "type": "address"
        },
        {
          "indexed": true,
          "internalType": "address",
          "name": "newOwner",
          "type": "address"
        }
      ],
      "name": "OwnershipTransferred",
      "type": "event"
    },
    {
      "anonymous": false,
      "inputs": [
        {
          "indexed": true,
          "internalType": "uint256",
          "name": "marketId",
          "type": "uint256"
        },
        {
          "indexed": false,
          "internalType": "uint256",
          "name": "yesPrice",
          "type": "uint256"
        }
      ],
      "name": "PriceUpdated",
      "type": "event"
    },
    {
      "anonymous": false,
      "inputs": [
        {
          "indexed": true,
          "internalType": "address",
          "name": "user",
          "type": "address"
        },
        {
          "indexed": true,
          "internalType": "uint256",
          "name": "marketId",
          "type": "uint256"
        },
        {
          "indexed": false,
          "internalType": "bool",
          "name": "soldYes",
          "type": "bool"
        },
        {
          "indexed": false,
          "internalType": "uint256",
          "name": "sharesAmount",
          "type": "uint256"
        },
        {
          "indexed": false,
          "internalType": "uint256",
          "name": "usdcReceived",
          "type": "uint256"
        }
      ],
      "name": "SharesSold",
      "type": "event"
    },
    {
      "anonymous": false,
      "inputs": [
        {
          "indexed": true,
          "internalType": "address",
          "name": "user",
          "type": "address"
        },
        {
          "indexed": true,
          "internalType": "uint256",
          "name": "marketId",
          "type": "uint256"
        },
        {
          "indexed": false,
          "internalType": "bool",
          "name": "buyYes",
          "type": "bool"
        },
        {
          "indexed": false,
          "internalType": "uint256",
          "name": "usdcAmount",
          "type": "uint256"
        },
        {
          "indexed": false,
          "internalType": "uint256",
          "name": "sharesAmount",
          "type": "uint256"
        }
      ],
      "name": "Trade",
      "type": "event"
    },
    {
      "inputs": [],
      "name": "FEE_DENOMINATOR",
      "outputs": [
        {
          "internalType": "uint256",
          "name": "",
          "type": "uint256"
        }
      ],
      "stateMutability": "view",
      "type": "function"
    },
    {
      "inputs": [],
      "name": "FEE_RATE",
      "outputs": [
        {
          "internalType": "uint256",
          "name": "",
          "type": "uint256"
        }
      ],
      "stateMutability": "view",
      "type": "function"
    },
    {
      "inputs": [],
      "name": "PRICE_PRECISION",
      "outputs": [
        {
          "internalType": "uint256",
          "name": "",
          "type": "uint256"
        }
      ],
      "stateMutability": "view",
      "type": "function"
    },
    {
      "inputs": [
        {
          "internalType": "uint256",
          "name": "_marketId",
          "type": "uint256"
        },
        {
          "internalType": "bool",
          "name": "_buyYes",
          "type": "bool"
        },
        {
          "internalType": "uint256",
          "name": "_usdcAmount",
          "type": "uint256"
        }
      ],
      "name": "buyShares",
      "outputs": [],
      "stateMutability": "nonpayable",
      "type": "function"
    },
    {
      "inputs": [
        {
          "internalType": "uint256",
          "name": "_marketId",
          "type": "uint256"
        }
      ],
      "name": "claimWinnings",
      "outputs": [],
      "stateMutability": "nonpayable",
      "type": "function"
    },
    {
      "inputs": [
        {
          "internalType": "string",
          "name": "_question",
          "type": "string"
        },
        {
          "internalType": "uint256",
          "name": "_endTime",
          "type": "uint256"
        },
        {
          "internalType": "uint256",
          "name": "_initialYesReserve",
          "type": "uint256"
        },
        {
          "internalType": "uint256",
          "name": "_initialNoReserve",
          "type": "uint256"
        },
        {
          "internalType": "uint256",
          "name": "_initialYesPrice",
          "type": "uint256"
        }
      ],
      "name": "createMarketWithLiquidity",
      "outputs": [
        {
          "internalType": "uint256",
          "name": "",
          "type": "uint256"
        }
      ],
      "stateMutability": "nonpayable",
      "type": "function"
    },
    {
      "inputs": [],
      "name": "getAllMarkets",
      "outputs": [
        {
          "internalType": "string[]",
          "name": "questions",
          "type": "string[]"
        },
        {
          "internalType": "uint256[]",
          "name": "yesPrices",
          "type": "uint256[]"
        },
        {
          "internalType": "uint256[]",
          "name": "volumes",
          "type": "uint256[]"
        },
        {
          "internalType": "uint256[]",
          "name": "endTimes",
          "type": "uint256[]"
        }
      ],
      "stateMutability": "view",
      "type": "function"
    },
    {
      "inputs": [
        {
          "internalType": "uint256",
          "name": "_marketId",
          "type": "uint256"
        }
      ],
      "name": "getMarketInfo",
      "outputs": [
        {
          "internalType": "string",
          "name": "question",
          "type": "string"
        },
        {
          "internalType": "uint256",
          "name": "yesPrice",
          "type": "uint256"
        },
        {
          "internalType": "uint256",
          "name": "totalVolume",
          "type": "uint256"
        },
        {
          "internalType": "uint256",
          "name": "endTime",
          "type": "uint256"
        },
        {
          "internalType": "uint256",
          "name": "yesReserve",
          "type": "uint256"
        },
        {
          "internalType": "uint256",
          "name": "noReserve",
          "type": "uint256"
        }
      ],
      "stateMutability": "view",
      "type": "function"
    },
    {
      "inputs": [
        {
          "internalType": "uint256",
          "name": "_marketId",
          "type": "uint256"
        },
        {
          "internalType": "address",
          "name": "_user",
          "type": "address"
        }
      ],
      "name": "getUserPosition",
      "outputs": [
        {
          "internalType": "uint256",
          "name": "yesShares",
          "type": "uint256"
        },
        {
          "internalType": "uint256",
          "name": "noShares",
          "type": "uint256"
        }
      ],
      "stateMutability": "view",
      "type": "function"
    },
    {
      "inputs": [],
      "name": "marketCount",
      "outputs": [
        {
          "internalType": "uint256",
          "name": "",
          "type": "uint256"
        }
      ],
      "stateMutability": "view",
      "type": "function"
    },
    {
      "inputs": [
        {
          "internalType": "uint256",
          "name": "",
          "type": "uint256"
        }
      ],
      "name": "markets",
      "outputs": [
        {
          "internalType": "string",
          "name": "question",
          "type": "string"
        },
        {
          "internalType": "uint256",
          "name": "endTime",
          "type": "uint256"
        },
        {
          "internalType": "uint256",
          "name": "yesReserve",
          "type": "uint256"
        },
        {
          "internalType": "uint256",
          "name": "noReserve",
          "type": "uint256"
        },
        {
          "internalType": "uint256",
          "name": "totalYesShares",
          "type": "uint256"
        },
        {
          "internalType": "uint256",
          "name": "totalNoShares",
          "type": "uint256"
        },
        {
          "internalType": "bool",
          "name": "resolved",
          "type": "bool"
        },
        {
          "internalType": "bool",
          "name": "outcome",
          "type": "bool"
        }
      ],
      "stateMutability": "view",
      "type": "function"
    },
    {
      "inputs": [],
      "name": "owner",
      "outputs": [
        {
          "internalType": "address",
          "name": "",
          "type": "address"
        }
      ],
      "stateMutability": "view",
      "type": "function"
    },
    {
      "inputs": [],
      "name": "renounceOwnership",
      "outputs": [],
      "stateMutability": "nonpayable",
      "type": "function"
    },
    {
      "inputs": [
        {
          "internalType": "uint256",
          "name": "_marketId",
          "type": "uint256"
        },
        {
          "internalType": "bool",
          "name": "_outcome",
          "type": "bool"
        }
      ],
      "name": "resolveMarket",
      "outputs": [],
      "stateMutability": "nonpayable",
      "type": "function"
    },
    {
      "inputs": [
        {
          "internalType": "uint256",
          "name": "_marketId",
          "type": "uint256"
        },
        {
          "internalType": "bool",
          "name": "_sellYes",
          "type": "bool"
        },
        {
          "internalType": "uint256",
          "name": "_sharesAmount",
          "type": "uint256"
        }
      ],
      "name": "sellShares",
      "outputs": [],
      "stateMutability": "nonpayable",
      "type": "function"
    },
    {
      "inputs": [
        {
          "internalType": "address",
          "name": "newOwner",
          "type": "address"
        }
      ],
      "name": "transferOwnership",
      "outputs": [],
      "stateMutability": "nonpayable",
      "type": "function"
    },
    {
      "inputs": [
        {
          "internalType": "uint256",
          "name": "_marketId",
          "type": "uint256"
        },
        {
          "internalType": "uint256",
          "name": "_yesPrice",
          "type": "uint256"
        }
      ],
      "name": "updatePrice",
      "outputs": [],
      "stateMutability": "nonpayable",
      "type": "function"
    },
    {
      "inputs": [],
      "name": "usdc",
      "outputs": [
        {
          "internalType": "contract IERC20",
          "name": "",
          "type": "address"
        }
      ],
      "stateMutability": "view",
      "type": "function"
    },
    {
      "inputs": [
        {
          "internalType": "uint256",
          "name": "",
          "type": "uint256"
        },
        {
          "internalType": "address",
          "name": "",
          "type": "address"
        }
      ],
      "name": "userNoShares",
      "outputs": [
        {
          "internalType": "uint256",
          "name": "",
          "type": "uint256"
        }
      ],
      "stateMutability": "view",
      "type": "function"
    },
    {
      "inputs": [
        {
          "internalType": "uint256",
          "name": "",
          "type": "uint256"
        },
        {
          "internalType": "address",
          "name": "",
          "type": "address"
        }
      ],
      "name": "userYesShares",
      "outputs": [
        {
          "internalType": "uint256",
          "name": "",
          "type": "uint256"
        }
      ],
      "stateMutability": "view",
      "type": "function"
    }
  ],
  "bytecode": "0x60a060405234801562000010575f80fd5b506040516200209038038062002090833981016040819052620000339162000123565b33806200005a57604051631e4fbdf760e01b81525f60048201526024015b60405180910390fd5b6200006581620000d4565b50600180556001600160a01b038116620000c25760405162461bcd60e51b815260206004820152601460248201527f496e76616c696420555344432061646472657373000000000000000000000000604482015260640162000051565b6001600160a01b031660805262000152565b5f80546001600160a01b038381166001600160a01b0319831681178455604051919092169283917f8be0079c531659141344cd1fd0a4f28419497f9722a3daafe3b4186f6b6457e09190a35050565b5f6020828403121562000134575f80fd5b81516001600160a01b03811681146200014b575f80fd5b9392505050565b608051611f10620001805f395f81816101600152818161062401528181610b5701526117170152611f105ff3fe608060405234801561000f575f80fd5b5060043610610127575f3560e01c80638da5cb5b116100a9578063b1283e771161006e578063b1283e77146102f7578063cd9c30bb1461031e578063d73792a9146102ac578063ec97908214610331578063f2fde38b1461033a575f80fd5b80638da5cb5b146102895780639367f3681461029957806395082d25146102ac5780639d536597146102b5578063b0772d0b146102df575f80fd5b8063677bd9ff116100ef578063677bd9ff146101d2578063715018a6146101e557806382367b2d146101ed578063869da9db146102005780638878c0481461025f575f80fd5b80632d11c58a1461012b57806339b46372146101465780633e413bee1461015b5780633ec791931461019a57806357bde446146101bf575b5f80fd5b610133601e81565b6040519081526020015b60405180910390f35b6101596101543660046118ea565b61034d565b005b6101827f000000000000000000000000000000000000000000000000000000000000000081565b6040516001600160a01b03909116815260200161013d565b6101ad6101a836600461191f565b61070f565b60405161013d96959493929190611979565b6101596101cd3660046119b4565b6108d2565b6101596101e036600461191f565b610a09565b610159610bf3565b6101596101fb3660046119e2565b610c06565b61024a61020e366004611a1d565b5f8281526004602090815260408083206001600160a01b0394909416808452938252808320549483526005825280832093835292905220549091565b6040805192835260208301919091520161013d565b61013361026d366004611a1d565b600560209081525f928352604080842090915290825290205481565b5f546001600160a01b0316610182565b6101336102a7366004611a5b565b610d32565b61013361271081565b6101336102c3366004611a1d565b600460209081525f928352604080842090915290825290205481565b6102e7610fac565b60405161013d9493929190611b5b565b61030a61030536600461191f565b6112ea565b60405161013d989796959493929190611bfa565b61015961032c3660046118ea565b6113cc565b61013360025481565b610159610348366004611c48565b6117fe565b610355611838565b600254831061037f5760405162461bcd60e51b815260040161037690611c68565b60405180910390fd5b5f6003848154811061039357610393611c90565b905f5260205f2090600702019050806001015442106103e35760405162461bcd60e51b815260206004820152600c60248201526b13585c9ad95d08195b99195960a21b6044820152606401610376565b600681015460ff161561042a5760405162461bcd60e51b815260206004820152600f60248201526e13585c9ad95d081c995cdbdb1d9959608a1b6044820152606401610376565b5f821161046e5760405162461bcd60e51b81526020600482015260126024820152710416d6f756e74206d757374206265203e20360741b6044820152606401610376565b5f61271061047d601e82611cb8565b6104879085611cd1565b6104919190611ce8565b90505f846104a35782600201546104a9565b82600301545b90505f856104bb5783600301546104c1565b83600201545b90505f846003015485600201546104d89190611cd1565b90505f6104e58585611d07565b90505f6104f28284611ce8565b90505f6104ff8286611cb8565b90505f81116105495760405162461bcd60e51b8152602060048201526016602482015275496e73756666696369656e74206c697175696469747960501b6044820152606401610376565b89156105ab5760028801829055600388018390556004880180548291905f90610573908490611d07565b90915550505f8b8152600460209081526040808320338452909152812080548392906105a0908490611d07565b909155506106029050565b60028801839055600388018290556005880180548291905f906105cf908490611d07565b90915550505f8b8152600560209081526040808320338452909152812080548392906105fc908490611d07565b90915550505b6040516323b872dd60e01b8152336004820152306024820152604481018a90527f00000000000000000000000000000000000000000000000000000000000000006001600160a01b0316906323b872dd906064016020604051808303815f875af1158015610672573d5f803e3d5ffd5b505050506040513d601f19601f820116820180604052508101906106969190611d1a565b6106b25760405162461bcd60e51b815260040161037690611d35565b604080518b15158152602081018b90529081018290528b9033907f77b6003b9a587579a28f90da18a5b082fe8709d73056070f57d582ca3c3c70159060600160405180910390a3505050505050505061070a60018055565b505050565b60605f805f805f60025487106107375760405162461bcd60e51b815260040161037690611c68565b5f6003888154811061074b5761074b611c90565b905f5260205f209060070201604051806101000160405290815f8201805461077290611d5e565b80601f016020809104026020016040519081016040528092919081815260200182805461079e90611d5e565b80156107e95780601f106107c0576101008083540402835291602001916107e9565b820191905f5260205f20905b8154815290600101906020018083116107cc57829003601f168201915b5050509183525050600182015460208201526002820154604080830191909152600383015460608084019190915260048401546080840152600584015460a084015260069093015460ff808216151560c085015261010090910416151560e09092019190915290820151908201519192505f916108669190611d07565b90508015610890578061271083604001516108819190611cd1565b61088b9190611ce8565b610894565b6113885b96508160a0015182608001516108aa9190611d07565b825160208401516040850151606090950151919c999b50919950909792965094509092505050565b6108da611862565b60025482106108fb5760405162461bcd60e51b815260040161037690611c68565b5f6003838154811061090f5761090f611c90565b905f5260205f209060070201905080600101544210156109645760405162461bcd60e51b815260206004820152601060248201526f13585c9ad95d081b9bdd08195b99195960821b6044820152606401610376565b600681015460ff16156109ac5760405162461bcd60e51b815260206004820152601060248201526f105b1c9958591e481c995cdbdb1d995960821b6044820152606401610376565b6006810180548315156101000261ffff1990911617600117905560405183907f4927fe38919783250023d27e65a3e56b6b5c3e49364e51674a41ef08d62460d9906109fc90851515815260200190565b60405180910390a2505050565b610a11611838565b6002548110610a325760405162461bcd60e51b815260040161037690611c68565b5f60038281548110610a4657610a46611c90565b5f9182526020909120600790910201600681015490915060ff16610aa25760405162461bcd60e51b815260206004820152601360248201527213585c9ad95d081b9bdd081c995cdbdb1d9959606a1b6044820152606401610376565b60068101545f90610100900460ff1615610ad957505f82815260046020908152604080832033845290915281208054919055610af8565b505f828152600560209081526040808320338452909152812080549190555b5f8111610b3b5760405162461bcd60e51b81526020600482015260116024820152704e6f2077696e6e696e672073686172657360781b6044820152606401610376565b60405163a9059cbb60e01b8152336004820152602481018290527f00000000000000000000000000000000000000000000000000000000000000006001600160a01b03169063a9059cbb906044016020604051808303815f875af1158015610ba5573d5f803e3d5ffd5b505050506040513d601f19601f82011682018060405250810190610bc99190611d1a565b610be55760405162461bcd60e51b815260040161037690611d35565b5050610bf060018055565b50565b610bfb611862565b610c045f61188e565b565b610c0e611862565b6002548210610c2f5760405162461bcd60e51b815260040161037690611c68565b60648110158015610c4257506126ac8111155b610c845760405162461bcd60e51b81526020600482015260136024820152725072696365206f7574206f6620626f756e647360681b6044820152606401610376565b5f60038381548110610c9857610c98611c90565b905f5260205f20906007020190505f81600301548260020154610cbb9190611d07565b9050805f03610cca5750505050565b612710610cd78483611cd1565b610ce19190611ce8565b60028301819055610cf29082611cb8565b600383015560405183815284907f945c1c4e99aa89f648fbfe3df471b916f719e16d960fcec0737d4d56bd6968389060200160405180910390a250505050565b5f610d3b611862565b428511610d8a5760405162461bcd60e51b815260206004820152601760248201527f456e642074696d65206d757374206265206675747572650000000000000000006044820152606401610376565b60648210158015610d9d57506126ac8211155b610ddb5760405162461bcd60e51b815260206004820152600f60248201526e507269636520302e30312d302e393960881b6044820152606401610376565b5f84118015610de957505f83115b610e2c5760405162461bcd60e51b815260206004820152601460248201527305265736572766573206d757374206265203e20360641b6044820152606401610376565b5f610e378486611d07565b90505f612710610e478584611cd1565b610e519190611ce8565b90505f610e5e8284611cb8565b60408051610100810182528b8152602081018b9052908101849052606081018290525f6080820181905260a0820181905260c0820181905260e082018190526003805460018101825591528151929350909182916007027fc2575a0e9e593c00f959f8c92f12db2869c3395a3b0502d05e2516446f71f85b01908190610ee49082611de1565b50602082015160018201556040820151600280830191909155606083015160038301556080830151600483015560a0830151600583015560c08301516006909201805460e09094015115156101000261ff00199315159390931661ffff19909416939093179190911790915580549081905f610f5f83611ea1565b9190505550807f2d1e9ad45dbe8e898e0374deebf2a661b2ae7c1855d2a29507d584c35d287c758c8c604051610f96929190611eb9565b60405180910390a29a9950505050505050505050565b60608060608060025467ffffffffffffffff811115610fcd57610fcd611a47565b60405190808252806020026020018201604052801561100057816020015b6060815260200190600190039081610feb5790505b50935060025467ffffffffffffffff81111561101e5761101e611a47565b604051908082528060200260200182016040528015611047578160200160208202803683370190505b50925060025467ffffffffffffffff81111561106557611065611a47565b60405190808252806020026020018201604052801561108e578160200160208202803683370190505b50915060025467ffffffffffffffff8111156110ac576110ac611a47565b6040519080825280602002602001820160405280156110d5578160200160208202803683370190505b5090505f5b6002548110156112e3575f600382815481106110f8576110f8611c90565b905f5260205f209060070201604051806101000160405290815f8201805461111f90611d5e565b80601f016020809104026020016040519081016040528092919081815260200182805461114b90611d5e565b80156111965780601f1061116d57610100808354040283529160200191611196565b820191905f5260205f20905b81548152906001019060200180831161117957829003601f168201915b5050509183525050600182015460208201526002820154604080830191909152600383015460608084019190915260048401546080840152600584015460a084015260069093015460ff808216151560c085015261010090910416151560e09092019190915290820151908201519192505f916112139190611d07565b90505f811561123e5781612710846040015161122f9190611cd1565b6112399190611ce8565b611242565b6113885b9050825f015188858151811061125a5761125a611c90565b60200260200101819052508087858151811061127857611278611c90565b6020026020010181815250508260a0015183608001516112989190611d07565b8685815181106112aa576112aa611c90565b60200260200101818152505082602001518585815181106112cd576112cd611c90565b60209081029190910101525050506001016110da565b5090919293565b600381815481106112f9575f80fd5b905f5260205f2090600702015f91509050805f01805461131890611d5e565b80601f016020809104026020016040519081016040528092919081815260200182805461134490611d5e565b801561138f5780601f106113665761010080835404028352916020019161138f565b820191905f5260205f20905b81548152906001019060200180831161137257829003601f168201915b5050506001840154600285015460038601546004870154600588015460069098015496979396929550909350919060ff8082169161010090041688565b6113d4611838565b60025483106113f55760405162461bcd60e51b815260040161037690611c68565b5f6003848154811061140957611409611c90565b905f5260205f2090600702019050806001015442106114595760405162461bcd60e51b815260206004820152600c60248201526b13585c9ad95d08195b99195960a21b6044820152606401610376565b600681015460ff16156114a05760405162461bcd60e51b815260206004820152600f60248201526e13585c9ad95d081c995cdbdb1d9959608a1b6044820152606401610376565b5f82116114e45760405162461bcd60e51b81526020600482015260126024820152710416d6f756e74206d757374206265203e20360741b6044820152606401610376565b5f83611508575f858152600560209081526040808320338452909152902054611522565b5f8581526004602090815260408083203384529091529020545b90508281101561156a5760405162461bcd60e51b8152602060048201526013602482015272496e73756666696369656e742073686172657360681b6044820152606401610376565b5f8461157a578260030154611580565b82600201545b90505f85611592578360020154611598565b83600301545b90505f846003015485600201546115af9190611cd1565b90505f6115bc8785611d07565b90505f6115c98284611ce8565b90505f6115d68286611cb8565b90505f6127106115e7601e82611cb8565b6115f19084611cd1565b6115fb9190611ce8565b90505f81116116425760405162461bcd60e51b8152602060048201526013602482015272125b9cdd59999a58da595b9d081bdd5d1c1d5d606a1b6044820152606401610376565b8a156116a45760028901849055600389018390556004890180548b91905f9061166c908490611cb8565b90915550505f8c8152600460209081526040808320338452909152812080548c9290611699908490611cb8565b909155506116fb9050565b60028901839055600389018490556005890180548b91905f906116c8908490611cb8565b90915550505f8c8152600560209081526040808320338452909152812080548c92906116f5908490611cb8565b90915550505b60405163a9059cbb60e01b8152336004820152602481018290527f00000000000000000000000000000000000000000000000000000000000000006001600160a01b03169063a9059cbb906044016020604051808303815f875af1158015611765573d5f803e3d5ffd5b505050506040513d601f19601f820116820180604052508101906117899190611d1a565b6117a55760405162461bcd60e51b815260040161037690611d35565b604080518c15158152602081018c90529081018290528c9033907f0f8be8c345384ca0a57b930e0f38b812dac6004125b3afc18c869fff8c9379049060600160405180910390a350505050505050505061070a60018055565b611806611862565b6001600160a01b03811661182f57604051631e4fbdf760e01b81525f6004820152602401610376565b610bf08161188e565b60026001540361185b57604051633ee5aeb560e01b815260040160405180910390fd5b6002600155565b5f546001600160a01b03163314610c045760405163118cdaa760e01b8152336004820152602401610376565b5f80546001600160a01b038381166001600160a01b0319831681178455604051919092169283917f8be0079c531659141344cd1fd0a4f28419497f9722a3daafe3b4186f6b6457e09190a35050565b8015158114610bf0575f80fd5b5f805f606084860312156118fc575f80fd5b83359250602084013561190e816118dd565b929592945050506040919091013590565b5f6020828403121561192f575f80fd5b5035919050565b5f81518084525f5b8181101561195a5760208185018101518683018201520161193e565b505f602082860101526020601f19601f83011685010191505092915050565b60c081525f61198b60c0830189611936565b60208301979097525060408101949094526060840192909252608083015260a090910152919050565b5f80604083850312156119c5575f80fd5b8235915060208301356119d7816118dd565b809150509250929050565b5f80604083850312156119f3575f80fd5b50508035926020909101359150565b80356001600160a01b0381168114611a18575f80fd5b919050565b5f8060408385031215611a2e575f80fd5b82359150611a3e60208401611a02565b90509250929050565b634e487b7160e01b5f52604160045260245ffd5b5f805f805f60a08688031215611a6f575f80fd5b853567ffffffffffffffff80821115611a86575f80fd5b818801915088601f830112611a99575f80fd5b813581811115611aab57611aab611a47565b604051601f8201601f19908116603f01168101908382118183101715611ad357611ad3611a47565b816040528281528b6020848701011115611aeb575f80fd5b826020860160208301375f60209382018401529b918a01359a505060408901359860608101359850608001359650945050505050565b5f815180845260208085019450602084015f5b83811015611b5057815187529582019590820190600101611b34565b509495945050505050565b5f608082016080835280875180835260a08501915060a08160051b86010192506020808a015f5b83811015611bb057609f19888703018552611b9e868351611936565b95509382019390820190600101611b82565b50505050508281036020840152611bc78187611b21565b90508281036040840152611bdb8186611b21565b90508281036060840152611bef8185611b21565b979650505050505050565b5f610100808352611c0d8184018c611936565b602084019a909a52505060408101969096526060860194909452608085019290925260a0840152151560c0830152151560e090910152919050565b5f60208284031215611c58575f80fd5b611c6182611a02565b9392505050565b6020808252600e908201526d125b9d985b1a59081b585c9ad95d60921b604082015260600190565b634e487b7160e01b5f52603260045260245ffd5b634e487b7160e01b5f52601160045260245ffd5b81810381811115611ccb57611ccb611ca4565b92915050565b8082028115828204841417611ccb57611ccb611ca4565b5f82611d0257634e487b7160e01b5f52601260045260245ffd5b500490565b80820180821115611ccb57611ccb611ca4565b5f60208284031215611d2a575f80fd5b8151611c61816118dd565b6020808252600f908201526e151c985b9cd9995c8819985a5b1959608a1b604082015260600190565b600181811c90821680611d7257607f821691505b602082108103611d9057634e487b7160e01b5f52602260045260245ffd5b50919050565b601f82111561070a57805f5260205f20601f840160051c81016020851015611dbb5750805b601f840160051c820191505b81811015611dda575f8155600101611dc7565b5050505050565b815167ffffffffffffffff811115611dfb57611dfb611a47565b611e0f81611e098454611d5e565b84611d96565b602080601f831160018114611e42575f8415611e2b5750858301515b5f19600386901b1c1916600185901b178555611e99565b5f85815260208120601f198616915b82811015611e7057888601518255948401946001909101908401611e51565b5085821015611e8d57878501515f19600388901b60f8161c191681555b505060018460011b0185555b505050505050565b5f60018201611eb257611eb2611ca4565b5060010190565b604081525f611ecb6040830185611936565b9050826020830152939250505056fea26469706673582212204fe243b622f789d739872bab8f3c2304cfcac3024758b9c1a2fee75dce58aa0a64736f6c63430008180033",
  "linkReferences": {},
  "deployedLinkReferences": {}
}